:0200000038289E
:10000800FF00030E8301B0000A08AF008A018B1CB1
:1000180014282E14A401A50187128B10A001A10198
:100028000C1D1E280C110C100130A2000030A3007A
:100038008E018F012F088A00300E8300FF0E7F0E7D
:020048000900AD
:0E004A00831203132D088A002C088200080080
:1000580025208A110A128000840AAC0A0319AD0A05
:08006800F003031D2C28080021
:1000700083120313A001A101A201A301A401A50100
:10008000A601A701A801A901AA01AB0186010730B9
:1000900083168600831287018316870183128501E8
:1000A0008316850105148514FF309F0083129F017C
:1000B0001F10831601178B100B168B170B1783124B
:1000C0008E018F01901210129010101483160C14D0
:1000D0008312971517119714171083160C154B30B0
:1000E00083129500960100302306031D7928013004
:1000F0002206031DA728A201A3012E1CA7288030D9
:100100002506F00080302B067002031D89282A087E
:100110002402031C8C28871603302A07F1002B08C1
:100120000318013EF20080307206F0008030250690
:100130007002031D9D28240871020318A428A4013D
:10014000A5012E108712A728A40A0319A50A861C48
:10015000BB2800302906031DAF2800302806031DE8
:10016000BA281930AA070318AB0A0130A8000030DA
:10017000A9000616BE28A801A9010612061DD2284C
:1001800000302706031DC62800302606031DD1288F
:100190001930AA02031CAB030130A6000030A700EF
:0E01A0008616D528A601A70186127328D62838
:02400E005A0056
:00000001FF
